:03000000020006F5
:03005F0002000399
:030003000202B244
:20006200D2B3900002120391D2B2900002020391D2B2D2B3900005120391C2B290000512B6
:200082000391C2B322C2B3C2B2900005120391D2B3900005120391D2B2900005020391C2DE
:2000A200B3C2B2900005120391D2B3900005120391C2B322C2B3D2B2900002120391D2B3CF
:2000C200900004120391C2B322D2B2900001120391D2B39000011203917F00A2B2500D0F97
:2000E200EF240550F612008775820122C2B375820022E582900001F0E0FF7E008EF005F0A7
:200102007C80E4FD3392D28008A2D2ED13FDEC13FCD5F0F58F027B00EA5204EB5205EC4DF4
:2001220024FF92B2D2B3900001C007C006120391C2B3900001120391D006D0070EBE0800E0
:2001420040BA22900002E4F0D2B27F00D2B3A2B2501E8FF005F07D80E4FE3392D28008A2BD
:20016200D2EE13FEED13FDD5F0F5900002E04DF0900001C007120391C2B39000011203919C
:20018200D0070FBF080040C4900002E0F58222E582900004F01200727582901200F4120093
:2001A200CB900004E0F5821200F41200CB900003E0F5821200F41200CB020087E582900057
:2001C20005F01200727582901200F41200CB900005E0F5821200F41200CB1200727582915F
:2001E2001200F41200CB120145AF82C0071200B6120087D0078F8222D2CD90003212035198
:200202007F00BF0C00502BEF75F002A424CAFD740335F0FE8D828E83E493FC8D828E83A342
:20022200E493900003F08C82C007120191D0070F80D022AF83E582900009F0EFA3F09000BD
:2002420009E0FEA3E0FF8E058F06900006E0FCA3E0FF8C038F04900008E0900003F0758203
:200262000DC006C005C004C003120191D003D004D005900003EDF0758216C004C003120126
:2002820091D003D004D006900003EEF0758217C004C003120191D003900003EBF075821854
:2002A200120191D004900003ECF07582190201911202DA53B2FB53B1FB74F755B24408F511
:1802C200B253B1F71200629000321203511201FA9003E812035180F875
:1803CA00000101CC064208FF0A020B000C5A0E8A0F00100007801B8C9C
:06003500E478FFF6D8FD9F
:200013007900E94400601B7A009003E5781375A000E493F2A308B8000205A0D9F4DAF27599
:02003300A0FF2C
:2002DA0090000BE4F0A3F075BA8090FE01E0FFBF0802801F90FE017408F07E007F007D0503
:2002FA001EBEFF011FEE4F70F7DDF590000BEEF0EFA3F075BA00759D0075A61F759FBA75BA
:20031A009E0090000BE0FEA3E0FF1EBEFF011FEE4F70F722E58290000EF0759D00E0F5A6E7
:20033A0090000DE0F59F759E007E007F001EBEFF011FEE4F70F722AF83E58290000FF0EFAA
:20035A00A3F090000FE0FEA3E0FF9003E2E493FC740193FD1CBCFF011DEC4D70F71EBEFF94
:20037A00011F90000FEEF0EFA3F0EE4F70DC90000FEEF0EFA3F022AF83E582900011F0EF81
:20039A00A3F0900011E0FEA3E0FF9003E4E493FDDDFE1EBEFF011F900011EEF0EFA3F0EEFF
:0C03BA004F70E7900011EEF0EFA3F0226E
:0303E2004D0100CA
:20003B007800E84400600A790175A000E4F309D8FC7812E84400600C7901900001E4F0A3B0
:04005B00D8FCD9FAFA
:0D0006007581071203C6E582600302000346
:0403C600758200221A
:00000001FF
